:1000000045C0000061C000005FC0000023C30000C5
:100010005BC0000059C0000057C0000055C0000080
:1000200053C0000051C000004FC000004DC0000090
:100030004BC000008DC5000047C0000045C0000057
:1000400043C0000041C000003FC000003DC00000B0
:100050003BC0000039C0000037C0000035C00000C0
:1000600033C0000031C000002FC000002DC00000D0
:100070002BC0000029C0000027C0000025C00000E0
:1000800023C0000021C000001FC0000011241FBEBB
:10009000CFEFD0E4DEBFCDBF11E0A0E0B1E0E2E8F9
:1000A000F2E100E00BBF02C007900D92AE32B10743
:1000B000D9F727E0AEE2B1E001C01D92AF37B20739
:1000C000E1F7AED20C943F099BCF813081F0E1EC97
:1000D000F0E0808188618083E2ECF0E080818660DE
:1000E000808385E08093C4001092C5000895E9ECF8
:1000F000F0E0808188618083EAECF0E080818660B6
:10010000808383E38093CC001092CD0008958130EA
:1001100021F08091C000807808958091C800807897
:100120000895813029F48091C800882384F00895CF
:100130008091C0008823ACF4A6ECB0E0E0ECF0E0E5
:100140008C918093400180818823D4F30895AEEC94
:10015000B0E0E8ECF0E08C9180934001808188234E
:10016000D4F30895813041F0E0ECF0E08081882301
:10017000ECF78091C6000895E8ECF0E080818823D8
:10018000ECF78091CE00089580913601909137016F
:10019000892BB1F48FE19EE40197F1F700C00000D4
:1001A000289892E09A95F1F700C0289A88E28A95FB
:1001B000F1F7289881E090E0909337018093360121
:1001C000089584E08DBB80E1809369000895E1E9A2
:1001D000F0E0808181608083089580917A07882390
:1001E00019F0813091F40AC0809135018230A9F56F
:1001F000E8DFEDDF81E080937A0711C0809135015F
:10020000823069F010927A07089510927A07089563
:1002100081E0809334010895109234010895B4DF91
:10022000609138017091390180913A0190913B01C0
:100230002AE330E040E050E0EAD730933F012093DA
:100240003E0180913E0190913F0182B980913E0133
:1002500090913F01499700F7DBCF089510927A07FC
:10026000BCDF89E190E05BD7FBCF80917E078130D6
:1002700081F030F08230E1F0833009F043C02DC0CE
:1002800080913501823009F05AC081E080937E0769
:100290003CC080913401882321F082E080937E0766
:1002A00037C080913501811130C010927E070895CA
:1002B00080913501811103C010927E0708958091CD
:1002C000320190913301039718F11092330110928B
:1002D000320183E080937E0727C080913501811130
:1002E00003C010927E0708958091300190913101F2
:1002F0000397D0F0109231011092300181E0809389
:100300007E0703C010927E07089585E588B9089599
:100310008091320190913301019690933301809343
:1003200032018AEA88B908958091300190913101B3
:100330000196909331018093300186E688B9089543
:1003400010927E0792DF8AE090E0E9D6FBCF8091A1
:100350007B07882319F0813049F504C081E0809340
:100360007B07089581E0D3DE8823E1F081E0FADEA7
:100370008093790781E0D5DE80917907813019F487
:10038000809335010BC0813121F482E080933501E7
:1003900005C08F3F19F41092350118B881E08093A1
:1003A0007B07089581E080937B07089510927B0777
:1003B000089510927B07CBDF82E390E0B0D6FBCFAD
:1003C00080917C07823009F459C030F4882359F0B9
:1003D000813009F086C040C0833009F460C08430A9
:1003E00009F07FC06DC080913501813009F094C063
:1003F00080E08DDE882311F180E0B4DE80937D07FC
:1004000082B980E08EDE80917D07873F21F481E014
:1004100080937C0776C0833F21F482E080937C0741
:1004200073C0843C21F483E080937C0770C0813CDE
:1004300009F05AC084E080937C076CC080E071DED4
:1004400080912E0190912F01019690932F0180931E
:100450002E0112B818B848C080E059DE882359F040
:1004600080E080DE80937D07873F09F03DC081E01A
:1004700080937C0746C010927C07089580E047DE99
:10048000882351F080E06EDE80937D07833F61F525
:1004900082E080937C0738C010927C07089580E04A
:1004A00036DE882351F080E05DDE80937D07843C5A
:1004B000D9F483E080937C072AC010927C070895CA
:1004C00080E025DE882351F080E04CDE80937D07BC
:1004D000813C51F484E080937C071CC010927C071F
:1004E000089510927C07089580917C07823061F016
:1004F00018F4813089F405C0833049F0843061F408
:1005000009C085E588B908958AEA88B9089586E61C
:1005100088B9089589E988B9089510927C0750DF59
:100520008AE090E0FCD5FBCFAF92BF92CF92DF92F2
:10053000EF92FF920F93A12CB12CC12CD12CE12C66
:10054000F12C082F20E030E045E550E062E071E05A
:100550008DE892E034D30F91FF90EF90DF90CF9031
:10056000BF90AF900895AF92BF92CF92DF92EF927B
:10057000FF920F93A12CB12CC12CD12CE12CF12C8A
:10058000082F20E030E045E550E069E071E089EDBA
:1005900091E015D30F91FF90EF90DF90CF90BF9037
:1005A000AF900895AF92BF92CF92DF92EF92FF92F9
:1005B0000F93A12CB12CC12CD12CE12CF12C082FA4
:1005C00020E030E045E550E065E171E08EE291E049
:1005D000F6D20F91FF90EF90DF90CF90BF90AF9049
:1005E0000895AF92BF92CF92DF92EF92FF920F9356
:1005F000A12CB12CC12CD12CE12CF12C082F20E006
:1006000030E045E550E06FE171E080EA91E0D7D25B
:100610000F91FF90EF90DF90CF90BF90AF90089533
:1006200081E084B915B81AB88FEF8BB981B912B8C7
:1006300087B918B880E049DD81E047DD81E074DFEB
:1006400082E0CFDF84E08FDF81E0ACDFB5D380E0F4
:1006500090E008951F920F920FB60F9211248F937E
:100660009F93AF93BF9380913C0190913D0101977F
:10067000B9F48091940090919500A0E0B0E080934F
:10068000380190933901A0933A01B0933B01109245
:100690003D0110923C01109237011092360110C0BA
:1006A00080913C0190913D01892B51F481E090E0D3
:1006B00090933D0180933C0110929500109294001C
:1006C000BF91AF919F918F910F900FBE0F901F9090
:1006D0001895CF93DF93EC0198D34091410150914D
:1006E00042019E01240F351F2C3D85E0380758F448
:1006F0004217530758F4EA01CD5BDE4F30934201B5
:100700002093410105C0C0E0D0E002C0C0E0D0E0CD
:1007100043D48C2F9D2FDF91CF9108950895FC0134
:100720000396928381832FEF3FEF34832383968355
:1007300085839087878310820895FC011186108637
:100740000895CF93DF93FC01DB0121813281E90120
:100750008A819B8113969C938E93129781819281BB
:1007600015969C938E9314978A819B81EC017D83CF
:100770006C83E9017B836A83728361831996FC939E
:10078000EE93189780818F5F8083DF91CF910895DA
:10079000CF93DF93EB01488159814F3F2FEF5207F1
:1007A00031F4DC011796ED91FC91189717C0FC010C
:1007B0003396DC0115962D913C911697D9012D9118
:1007C0003C914217530750F00280F381E02DA28143
:1007D000B3812D913C9142175307B0F7A281B381A9
:1007E000BB83AA831596DC93CE931497FD83EC8389
:1007F000D383C28399878887FC0120812F5F208360
:10080000DF91CF910895FC01A281B381848195810C
:1008100015969C938E931497A481B58182819381C0
:1008200013969C938E931297A085B18511968D9106
:100830009C9112978E179F0731F4848195811296AF
:100840009C938E931197118610868C9181508C9376
:10085000089531E1FC013083319722E22083FC01CD
:100860003297A3E3A083FC0133976083FC013497A4
:100870007083FC0135971082FC01369760E8608335
:10088000FC0137971082FC01389762E06083FC011D
:10089000399763E06083FC013A9764E06083FC0170
:1008A0003B9765E06083FC013C9766E06083FC0158
:1008B0003D9767E06083FC013E9768E06083FC0140
:1008C0003F9769E06083FC01709760E16083FC0101
:1008D00071973083FC01729732E13083FC0173978A
:1008E00033E13083FC01749734E13083FC01759768
:1008F00035E13083FC01769736E13083FC01779750
:1009000037E13083FC01789738E13083FC01799737
:1009100039E13083FC017A9730E23083FC017B9728
:1009200031E23083FC017C972083FC017D9723E238
:100930002083FC017E974083FC017F975083FC015C
:10094000B09726E22083FC01B19727E22083FC01C7
:10095000B29728E22083FC01B39729E22083FC01AF
:10096000B49720E32083FC01B59721E320839C0109
:1009700026523109822F932F0895109289008CE717
:10098000809388008BE080938100EFE6F0E0808127
:1009900082608083A0912D07B0912E07CD91CDBFAD
:1009A000DD91DEBFFF91EF91DF91CF91BF91AF91CC
:1009B0009F918F917F916F915F914F913F912F9177
:1009C0001F910F91FF90EF90DF90CF90BF90AF906D
:1009D0009F908F907F906F905F904F903F902F905F
:1009E0001F900F900FBE0F90089581E008950F9211
:1009F0000FB6F8940F921F9211242F923F924F92AC
:100A00005F926F927F928F929F92AF92BF92CF929E
:100A1000DF92EF92FF920F931F932F933F934F9389
:100A20005F936F937F938F939F93AF93BF93CF9376
:100A3000DF93EF93FF93A0912D07B0912E070DB692
:100A40000D920EB60D9286D3A0912D07B0912E0770
:100A5000CD91CDBFDD91DEBFFF91EF91DF91CF91C1
:100A6000BF91AF919F918F917F916F915F914F91C6
:100A70003F912F911F910F91FF90EF90DF90CF90BA
:100A8000BF90AF909F908F907F906F905F904F90AE
:100A90003F902F901F900F900FBE0F9008950F92D0
:100AA0000FB6F8940F921F9211242F923F924F92FB
:100AB0005F926F927F928F929F92AF92BF92CF92EE
:100AC000DF92EF92FF920F931F932F933F934F93D9
:100AD0005F936F937F938F939F93AF93BF93CF93C6
:100AE000DF93EF93FF93A0912D07B0912E070DB6E2
:100AF0000D920EB60D928FD12DD3A0912D07B091EE
:100B00002E07CD91CDBFDD91DEBFFF91EF91DF913B
:100B1000CF91BF91AF919F918F917F916F915F9195
:100B20004F913F912F911F910F91FF90EF90DF9088
:100B3000CF90BF90AF909F908F907F906F905F907D
:100B40004F903F902F901F900F900FBE0F900895E1
:100B5000A6DF1895CF93DF93EC01E0912D07F0917C
:100B60002E07938382838091250790912607C817CB
:100B7000D90760F460912D0770912E0780912907A5
:100B800090912A076E5F7F4F03DE16C060912D079C
:100B900070912E0780912B0790912C076E5F7F4FED
:100BA000F7DD8091000190910101C817D90720F469
:100BB000D0930101C0930001DF91CF9108954F922E
:100BC0005F926F927F928F929F92AF92BF92CF92DD
:100BD000DF92EF92FF920F931F93CF93DF934C011D
:100BE0003B015A01290181E290E073DDEC0100979D
:100BF00009F4D0C0C114D10409F0C9C0C50169DD30
:100C00006C01988F8F8B009719F4CE0187DDC2C0DD
:100C1000A50165EA70E0C6011CD381E0A81AB108FD
:100C20008F89988DA80EB91E48E050E0B301CE011F
:100C3000499616D318A2102F043008F013E01E8B2B
:100C40006E01E2E0CE0ED11CC60177DDCE010C961E
:100C500074DDD987C88784E090E0811B91099D8766
:100C60008C87DB8BCA8BA201B401C501F2DD9983AD
:100C70008883E114F10419F0F701D183C0830FB622
:100C8000F8940F92809127078F5F809327078091B8
:100C90002D0790912E07892BB9F5D0932E07C0937D
:100CA0002D0780912707813009F03DC0E12CF12C00
:100CB000C701880F991F880F991F880F991F8E0DE4
:100CC0009F1D8F5C984F2BDDFFEFEF1AFF0A84E02A
:100CD000E816F10469F785E597E021DD8EE597E0F8
:100CE0001EDD87E697E01BDD80E797E018DD85E5F0
:100CF00097E090932C0780932B078EE597E09093D5
:100D00002A07809329070FC08091230781110BC008
:100D1000E0912D07F0912E078689081720F0D093D7
:100D20002E07C0932D078E8990912F07981710F4E6
:100D300080932F07909130079F5F90933007909199
:100D40002407981710F48093240790E09C01220F49
:100D5000331F220F331F220F331F820F931FB60141
:100D60008F5C984FEEDC0F900FBE80912307882395
:100D700051F0E0912D07F0912E078689801728F415
:100D800036DE81E008C081E006C081E004C0D88E74
:100D9000CF8A3ECF8FEFDF91CF911F910F91FF90C0
:100DA000EF90DF90CF90BF90AF909F908F907F900B
:100DB0006F905F904F900895AF92BF92CF92DF9265
:100DC000EF92FF920F93A12CB12CC12CD12CE12CCE
:100DD000F12C00E020E030E045E550E068E271E011
:100DE00085E598E0ECDE813041F4F89480932307A8
:100DF0001092260710922507C0DD0F91FF90EF900B
:100E0000DF90CF90BF90AF900895809122078F5FC1
:100E10008093220708950F931F93CF93DF938091C0
:100E200022078111AFC08091250790912607019676
:100E30009093260780932507809125079091260798
:100E4000892B99F580912B0790912C0720912907E8
:100E500030912A0730932C0720932B0790932A0771
:100E60008093290780911F078F5F80931F07E09170
:100E70002B07F0912C078081811107C08FEF9FEF26
:100E8000909301018093000110C0E0912B07F09135
:100E90002C070580F681E02D0680F781E02D828108
:100EA0009381909301018093000120912507309157
:100EB000260780910001909101012817390708F455
:100EC00066C0E0912B07F0912C078081882399F070
:100ED000E0912B07F0912C070580F681E02DC6816B
:100EE000D7818A819B812091250730912607281779
:100EF0003907F8F419C08FEF9FEF909301018093A9
:100F0000000145C0E0912B07F0912C070580F68188
:100F1000E02DC681D7818A819B8120912507309160
:100F200026072817390728F49093010180930001C0
:100F30002EC08E010E5F1F4FC80165DC8C899D8914
:100F4000892B19F0CE010C965EDC8E8990912407D6
:100F5000981710F48093240790E09C01220F331F10
:100F6000220F331F220F331F820F931FB8018F5C94
:100F7000984FE7DBE0912B07F0912C0780818111DE
:100F8000C1CFB9CF809121078F5F80932107DF9177
:100F9000CF911F910F910895AF92BF92CF92DF92A0
:100FA000EF92FF920F931F93CF93DF930FB6F894B6
:100FB0000F9280912207815080932207809122070F
:100FC000811163C08091270781112DC061C0D601B6
:100FD000ED91FC91C681D781CE010C9614DC8E0177
:100FE0000E5F1F4FC8010FDC8E8990912407981760
:100FF00010F48093240790E09C01220F331F220FEE
:10100000331F220F331F820F931FB8018F5C984F3D
:1010100098DBE0912D07F0912E079E89868998171D
:1010200088F0BA2C0FC0B12C0F2EF7E6EF2EF7E0A8
:10103000FF2EF02D0F2EFCE6CF2EF7E0DF2EF02D49
:10104000AA24A394F70180818111C1CF8091210747
:10105000882379F080912107882391F0DCDE80914C
:101060002107815080932107809121078111F6CFBC
:1010700007C0F1E0BF1621F080912007813039F4DC
:1010800010922007B4DC81E003C080E001C080E062
:101090000F900FBEDF91CF911F910F91FF90EF90B6
:1010A000DF90CF90BF90AF9008950F2EF0E7EF2E16
:1010B000F7E0FF2EF02D0F2EF5E7CF2EF7E0DF2E15
:1010C000F02DC1E3D7E080912807882319F19DDE38
:1010D000D7011C9161DF1123E9F00FB6F8940F924C
:1010E000D601ED91FC9106811781C80102968BDB38
:1010F000809127078150809327078091280781508E
:10110000809328070F900FBEF8018789908D06DB2A
:10111000C80104DB88818230B0F269DCD4CFCF9380
:10112000DF93EC01009791F070DE8091250790919C
:101130002607C80FD91F80912D0790912E07029680
:1011400062DBCE0107DD28DF811101C050DCDF91B9
:10115000CF91089580912207811113C080912407B7
:1011600090E0FC01EE0FFF1FEE0FFF1FEE0FFF1FC1
:101170008E0F9F1FFC01EF5CF84F8081882329F0C0
:101180001BC081E08093200708958091240781503F
:10119000809324078091240790E0FC01EE0FFF1F4D
:1011A000EE0FFF1FEE0FFF1F8E0F9F1FFC01EF5C66
:1011B000F84F8081882349F3E0912407F0E0CF01C4
:1011C000880F991F880F991F880F991FE80FF91F23
:1011D000EF5CF84FA181B28112960D90BC91A02DC9
:1011E000B283A183CF010396A817B90731F41296F1
:1011F0008D919C911397928381830180F281E02DE0
:101200008681978190932E0780932D070895A1E200
:101210001A2EAA1BBB1BFD010DC0AA1FBB1FEE1F70
:10122000FF1FA217B307E407F50720F0A21BB30BBB
:10123000E40BF50B661F771F881F991F1A9469F737
:1012400060957095809590959B01AC01BD01CF0193
:101250000895DC0101C06D9341505040E0F70895BE
:10126000FB01DC014150504048F001900D920020FC
:10127000C9F701C01D9241505040E0F70895F8941D
:02128000FFCF9E
:10128200FFFF52435469636B00434F4E54524F4C1D
:101292005469636B0054494D45525469636B004174
:0E12A20055544F5469636B0049444C4500009D
:00000001FF
