S01F00004353313232415F46696E616C5F50726F6A6563745F50322E7372656339
S113000045C0000061C000005FC000005DC000008A
S11300105BC0000059C0000057C0000055C000007C
S113002053C0000051C000004FC000004DC000008C
S11300304BC0000003C5000047C0000045C00000DD
S113004043C0000041C000003FC000003DC00000AC
S11300503BC0000039C0000037C0000035C00000BC
S113006033C0000031C000002FC000002DC00000CC
S11300702BC0000029C0000027C0000025C00000DC
S113008023C0000021C000001FC0000011241FBEB7
S1130090CFEFD0E4DEBFCDBF11E0A0E0B1E0EAE2F3
S11300A0F1E100E00BBF02C007900D92A639B10741
S11300B0D9F727E0A6E9B1E001C01D92A63DB20739
S11300C0E1F7FFD10C9493089BCF813081F0E1ECF0
S11300D0F0E0808188618083E2ECF0E080818660DA
S11300E0808383E38093C4001092C5000895E9ECF3
S11300F0F0E0808188618083EAECF0E080818660B2
S1130100808383E38093CC001092CD000895613006
S113011041F0E0ECF0E0908195FFFDCF8093C600C4
S11301200895E8ECF0E0908195FFFDCF8093CE0038
S1130130089586B18095982F917086B18095282F67
S113014022708091D207833009F440C020F48130BA
S1130150A9F050F508C0853071F108F44DC086301F
S113016009F05CC050C08091960190919701892B51
S113017009F097C081E08093D2075EC0992321F0F3
S113018082E08093D2070895222309F455C060E0E9
S113019081E0BDDF81E090E0909397018093960128
S11301A085E08093D20772C091117BC005D283E0B1
S11301B08093D20756C0211169C081E090E09093EA
S11301C09901809398011092D2070895992321F000
S11301D084E08093D2070895222309F442C060E0AA
S11301E081E195DF81E090E09093970180939601FF
S11301F086E08093D20715C0911153C0DDD181E010
S11302008093D20719C021110CC082E090E0909332
S11302109901809398011092D20708951092D20701
S11302200895CAD16AE071E082E090E0B1D167E15B
S113023071E083E190E0ACC160E071E080E090E0C7
S1130240CBD181E090E09ED180E090E08BD163E25D
S113025071E083E090E09CD160E371E083E190E0A1
S113026097C160E071E080E090E0B6D181E190E078
S113027089D180E090E076D163E271E083E090E0A0
S113028087D160E371E083E190E082C195D16AE0B7
S113029071E082E090E07CD167E171E083E190E07D
S11302A077C108951092D20744DF82E390E0ADD67F
S11302B0FBCF86B18095282F20788091D507813097
S11302C081F018F0823069F51BC0809198019091FB
S11302D09901029709F038C06FD181E08093D50766
S11302E023C08091980190919901029731F42223BF
S11302F0D9F082E08093D5071CC01092D5070895E9
S1130300211117C0109299011092980155D11092A1
S113031097011092960160E08FEFF9DE1092D507F5
S113032008951092D50708956DE371E082E090E09E
S11303302FC142D16CE471E082E090E029D167E101
S113034071E083E190E024C108951092D507B1DFF4
S113035084E690E05AD6FBCF86B18095282F20788A
S11303608091D407813081F018F0823069F51BC088
S11303708091980190919901019709F03DC01CD199
S113038081E08093D40723C08091980190919901D2
S1130390019731F42223D9F082E08093D40721C05D
S11303A01092D407089521111CC010929901109243
S11303B0980102D160E08FEFAADE109297011092AB
S11303C096011092D40708951092D407089569E510
S11303D071E082E090E0DCD065E671E080E190E0DD
S11303E0D7C0EAD06CE471E082E090E0D1D067E15C
S11303F071E083E190E0CCC008951092D407ACDFA3
S113040084E690E002D6FBCFAF92BF92CF92DF9208
S1130410EF92FF920F93A12CB12CC12CD12CE12C83
S1130420F12C082F20E030E045E550E064E771E06E
S113043082E591E03AD30F91FF90EF90DF90CF9057
S1130440BF90AF900895AF92BF92CF92DF92EF9298
S1130450FF920F93A12CB12CC12CD12CE12CF12CA7
S1130460082F20E030E045E550E060E871E085EADF
S113047091E01BD30F91FF90EF90DF90CF90BF904E
S1130480AF900895AF92BF92CF92DF92EF92FF9216
S11304900F93A12CB12CC12CD12CE12CF12C082FC1
S11304A020E030E045E550E069E871E08DEF91E04F
S11304B0FCD20F91FF90EF90DF90CF90BF90AF9060
S11304C0089517B88FEF88B98AB91BB881B912B8E3
S11304D084B915B873D070D080E0F7DD81E094DF83
S11304E081E0B1DF81E0CEDFDDD380E090E00895EC
S11304F0CF93DF93EC01FFD340919A0150919B017C
S11305009E01240F351F2C3D85E0380758F442170F
S1130510530758F4EA01C456DE4F30939B012093ED
S11305209A0105C0C0E0D0E002C0C0E0D0E0AAD487
S11305308C2F9D2FDF91CF910895089518161906D9
S11305405CF00895000021503109E1F74F5F5F4FDF
S11305504817590729F4089540E050E067E073E034
S11305609B01F0CF109A85B9119A0000119881E08F
S113057090E0E4CF109885B9119A0000119882E0B8
S113058090E0DCCF813110F48158F4CF8155F2CF63
S11305901F93CF93DF93EB019881992349F0182F90
S11305A01F5FF0DF8991DEDF812F98819111F7CFF2
S11305B0DF91CF911F91089581E0DCCF84E690E034
S11305C0BDDF88E3D7DF86E0D5DF8FE0D3DF81E0CE
S11305D0D1DF8AE090E0B2CF0F931F93CF93DF93E4
S11305E0062F172F883060F4880F880F880F805CDF
S11305F0C1DFC02FD12F18E08991B4DF1150E1F78A
S1130600DF91CF911F910F910895FC01039692837E
S113061081832FEF3FEF34832383968385839087F1
S1130620878310820895FC01118610860895CF9364
S1130630DF93FC01DB0121813281E9018A819B8105
S113064013969C938E9312978181928115969C9315
S11306508E9314978A819B81EC017D836C83E901DD
S11306607B836A83728361831996FC93EE93189754
S113067080818F5F8083DF91CF910895CF93DF9343
S1130680EB01488159814F3F2FEF520731F4DC01D0
S11306901796ED91FC91189717C0FC013396DC0175
S11306A015962D913C911697D9012D913C914217A5
S11306B0530750F00280F381E02DA281B3812D9184
S11306C03C9142175307B0F7A281B381BB83AA833D
S11306D01596DC93CE931497FD83EC83D383C28366
S11306E099878887FC0120812F5F2083DF91CF9138
S11306F00895FC01A281B3818481958115969C9310
S11307008E931497A481B5818281938113969C93CF
S11307108E931297A085B18511968D919C91129715
S11307208E179F0731F48481958112969C938E9342
S11307301197118610868C9181508C93089531E124
S1130740FC013083319722E22083FC013297A3E33A
S1130750A083FC0133976083FC0134977083FC0110
S113076035971082FC01369760E86083FC01379767
S11307701082FC01389762E06083FC01399763E0E2
S11307806083FC013A9764E06083FC013B9765E079
S11307906083FC013C9766E06083FC013D9767E061
S11307A06083FC013E9768E06083FC013F9769E049
S11307B06083FC01709760E16083FC017197308372
S11307C0FC01729732E13083FC01739733E130838B
S11307D0FC01749734E13083FC01759735E1308373
S11307E0FC01769736E13083FC01779737E130835B
S11307F0FC01789738E13083FC01799739E1308343
S1130800FC017A9730E23083FC017B9731E230833C
S1130810FC017C972083FC017D9723E22083FC016B
S11308207E974083FC017F975083FC01B09726E2BA
S11308302083FC01B19727E22083FC01B29728E2D0
S11308402083FC01B39729E22083FC01B49720E3C1
S11308502083FC01B59721E320839C0126523109B2
S1130860822F932F0895109289008CE7809388003B
S11308708BE080938100EFE6F0E0808182608083EA
S1130880A0918607B0918707CD91CDBFDD91DEBFE2
S1130890FF91EF91DF91CF91BF91AF919F918F9194
S11308A07F916F915F914F913F912F911F910F9184
S11308B0FF90EF90DF90CF90BF90AF909F908F907C
S11308C07F906F905F904F903F902F901F900F906C
S11308D00FBE0F90089581E008950F920FB6F8941B
S11308E00F921F9211242F923F924F925F926F9218
S11308F07F928F929F92AF92BF92CF92DF92EF92AC
S1130900FF920F931F932F933F934F935F936F9394
S11309107F938F939F93AF93BF93CF93DF93EF9383
S1130920FF93A0918607B09187070DB60D920EB67E
S11309300D9286D3A0918607B0918707CD91CDBF44
S1130940DD91DEBFFF91EF91DF91CF91BF91AF9128
S11309509F918F917F916F915F914F913F912F91D3
S11309601F910F91FF90EF90DF90CF90BF90AF90C9
S11309709F908F907F906F905F904F903F902F90BB
S11309801F900F900FBE0F9008950F920FB6F8941A
S11309900F921F9211242F923F924F925F926F9267
S11309A07F928F929F92AF92BF92CF92DF92EF92FB
S11309B0FF920F931F932F933F934F935F936F93E4
S11309C07F938F939F93AF93BF93CF93DF93EF93D3
S11309D0FF93A0918607B09187070DB60D920EB6CE
S11309E00D928FD12DD3A0918607B0918707CD9119
S11309F0CDBFDD91DEBFFF91EF91DF91CF91BF912C
S1130A00AF919F918F917F916F915F914F913F91A2
S1130A102F911F910F91FF90EF90DF90CF90BF9097
S1130A20AF909F908F907F906F905F904F903F908A
S1130A302F901F900F900FBE0F900895A6DF18956A
S1130A40CF93DF93EC01E0918607F09187079383BE
S1130A50828380917E0790917F07C817D90760F43D
S1130A606091860770918707809182079091830730
S1130A706E5F7F4F03DE16C0609186077091870713
S1130A8080918407909185076E5F7F4FF7DD809199
S1130A90080190910901C817D90720F4D0930901DE
S1130AA0C0930801DF91CF9108954F925F926F92A6
S1130AB07F928F929F92AF92BF92CF92DF92EF92EA
S1130AC0FF920F931F93CF93DF934C013B015A0185
S1130AD0290181E290E00CDDEC01009709F4D0C01B
S1130AE0C114D10409F0C9C0C50102DD6C01988F9D
S1130AF08F8B009719F4CE0120DDC2C0A50165EAF1
S1130B0070E0C601FAD281E0A81AB1088F89988DE5
S1130B10A80EB91E48E050E0B301CE014996F4D2C4
S1130B2018A2102F043008F013E01E8B6E01E2E0CF
S1130B30CE0ED11CC60177DDCE010C9674DDD987AB
S1130B40C88784E090E0811B91099D878C87DB8BAB
S1130B50CA8BA201B401C501F2DD99838883E11433
S1130B60F10419F0F701D183C0830FB6F8940F9202
S1130B70809180078F5F8093800780918607909192
S1130B808707892BB9F5D0938707C093860780918F
S1130B908007813009F03DC0E12CF12CC701880F9A
S1130BA0991F880F991F880F991F8E0D9F1D8657B7
S1130BB0984F2BDDFFEFEF1AFF0A84E0E816F104EB
S1130BC069F78EEA97E021DD87EB97E01EDD80EC84
S1130BD097E01BDD89EC97E018DD8EEA97E09093AF
S1130BE085078093840787EB97E09093830780932E
S1130BF082070FC080917C0781110BC0E0918607AA
S1130C00F09187078689081720F0D0938707C0934F
S1130C1086078E8990918807981710F48093880727
S1130C20909189079F5F9093890790917D0798170A
S1130C3010F480937D0790E09C01220F331F220F54
S1130C40331F220F331F820F931FB6018657984F0D
S1130C50EEDC0F900FBE80917C07882351F0E09169
S1130C608607F09187078689801728F436DE81E0AD
S1130C7008C081E006C081E004C0D88ECF8A3ECF90
S1130C808FEFDF91CF911F910F91FF90EF90DF9045
S1130C90CF90BF90AF909F908F907F906F905F9018
S1130CA04F900895AF92BF92CF92DF92EF92FF924E
S1130CB00F93A12CB12CC12CD12CE12CF12C00E0F0
S1130CC020E030E045E550E061E971E08BEC97E02D
S1130CD0ECDE813041F4F89480937C0710927F0716
S1130CE010927E07C0DD0F91FF90EF90DF90CF90C0
S1130CF0BF90AF90089580917B078F5F80937B07AF
S1130D0008950F931F93CF93DF9380917B078111F5
S1130D10AFC080917E0790917F07019690937F07E3
S1130D2080937E0780917E0790917F07892B99F5A8
S1130D3080918407909185072091820730918307E1
S1130D4030938507209384079093830780938207C9
S1130D50809178078F5F80937807E0918407F09102
S1130D6085078081811107C08FEF9FEF9093090160
S1130D708093080110C0E0918407F09185070580F5
S1130D80F681E02D0680F781E02D82819381909396
S1130D9009018093080120917E0730917F0780919B
S1130DA00801909109012817390708F466C0E091F9
S1130DB08407F09185078081882399F0E091840766
S1130DC0F09185070580F681E02DC681D7818A815F
S1130DD09B8120917E0730917F0728173907F8F40B
S1130DE019C08FEF9FEF909309018093080145C0CC
S1130DF0E0918407F09185070580F681E02DC68196
S1130E00D7818A819B8120917E0730917F072817A3
S1130E10390728F490930901809308012EC08E01AC
S1130E200E5F1F4FC80165DC8C899D89892B19F0E1
S1130E30CE010C965EDC8E8990917D07981710F494
S1130E4080937D0790E09C01220F331F220F331FF4
S1130E50220F331F820F931FB8018657984FE7DB89
S1130E60E0918407F091850780818111C1CFB9CFCA
S1130E7080917A078F5F80937A07DF91CF911F91DA
S1130E800F910895AF92BF92CF92DF92EF92FF92AB
S1130E900F931F93CF93DF930FB6F8940F92809123
S1130EA07B07815080937B0780917B07811163C00E
S1130EB08091800781112DC061C0D601ED91FC9114
S1130EC0C681D781CE010C9614DC8E010E5F1F4FB4
S1130ED0C8010FDC8E8990917D07981710F48093D8
S1130EE07D0790E09C01220F331F220F331F220F36
S1130EF0331F820F931FB8018657984F98DBE091F8
S1130F008607F09187079E898689981788F0BA2CFE
S1130F100FC0B12C0F2EF0ECEF2EF7E0FF2EF02DCA
S1130F200F2EF5ECCF2EF7E0DF2EF02DAA24A3949C
S1130F30F70180818111C1CF80917A07882379F0EC
S1130F4080917A07882391F0DCDE80917A078150C2
S1130F5080937A0780917A078111F6CF07C0F1E078
S1130F60BF1621F080917907813039F41092790706
S1130F70B4DC81E003C080E001C080E00F900FBECC
S1130F80DF91CF911F910F91FF90EF90DF90CF9061
S1130F90BF90AF9008950F2EF9ECEF2EF7E0FF2EDF
S1130FA0F02D0F2EFEECCF2EF7E0DF2EF02DCAE849
S1130FB0D7E080918107882319F19DDED7011C9128
S1130FC061DF1123E9F00FB6F8940F92D601ED9189
S1130FD0FC9106811781C80102968BDB8091800702
S1130FE0815080938007809181078150809381078D
S1130FF00F900FBEF8018789908D9FDAC8019DDAA2
S113100088818230B0F269DCD4CFCF93DF93EC01D6
S1131010009791F070DE80917E0790917F07C80F52
S1131020D91F8091860790918707029662DBCE01D3
S113103007DD28DF811101C050DCDF91CF910895D5
S113104080917B07811113C080917D0790E0FC01A2
S1131050EE0FFF1FEE0FFF1FEE0FFF1F8E0F9F1FE0
S1131060FC01E657F84F8081882329F01BC081E0FA
S113107080937907089580917D07815080937D073F
S113108080917D0790E0FC01EE0FFF1FEE0FFF1F24
S1131090EE0FFF1F8E0F9F1FFC01E657F84F808154
S11310A0882349F3E0917D07F0E0CF01880F991F71
S11310B0880F991F880F991FE80FF91FE657F84FFB
S11310C0A181B28112960D90BC91A02DB283A1830F
S11310D0CF010396A817B90731F412968D919C910C
S11310E01397928381830180F281E02D8681978119
S11310F090938707809386070895DC0101C06D9360
S113110041505040E0F70895FB01DC01415050404C
S113111048F001900D920020C9F701C01D92415082
S10D11205040E0F70895F894FFCF63
S113112A00080C0E0C080000FFFF4C4F4144494EC6
S113113A472E2E2E2E2E00504C4541534520574102
S113114A4954004D414E55414C204452495645009C
S113115A4155544F20202044524956450041555484
S113116A4F4D41544943204D4F4445005245534540
S113117A54494E472E2E2E2E004D414E55414C2099
S113118A4D4F4445002020484156452046554E219E
S113119A212120004D61696E4C43445469636B00FC
S11311AA4175746F5469636B004D616E5469636B66
S10911BA0049444C45000D
S9030000FC
